:020000040800F2
:1000000000800020912C0008B5090008B7090008FD
:10001000B9090008BB090008BD090008000000007C
:10002000000000000000000000000000BF09000800
:10003000C109000800000000C3090008C509000844
:10004000E12C0008E12C0008E12C0008E12C00085C
:10005000E12C0008E12C0008E12C0008E12C00084C
:10006000E12C0008E12C0008E12C0008E12C00083C
:10007000E12C0008E12C0008E12C0008E12C00082C
:10008000E12C000800000000E12C0008E12C000831
:10009000E12C0008E12C0008E12C0008E12C00080C
:1000A000E12C0008E12C0008E12C0008E12C0008FC
:1000B000E12C0008E12C0008CD090008E12C000823
:1000C000E12C0008E12C0008E12C0008E12C0008DC
:1000D000E12C0008E12C0008E12C0008E12C0008CC
:1000E000E12C0008E12C0008E12C0008E12C0008BC
:1000F000E12C0008E12C0008E12C000800000000C1
:1001000000000000E12C000800000000E12C0008C5
:10011000E12C000800000000E12C0008E12C0008A0
:10012000E12C0008E12C0008E12C0008E12C00087B
:10013000E12C00080000000000000000E12C000895
:10014000E12C0008E12C0008000000000000000085
:10015000000000000000000000000000000000009F
:10016000000000000000000000000000E12C00087A
:10017000E12C00080000000000000000000000006A
:1001800000000000E12C000800000000000000005A
:10019000000000000000000000000000000000005F
:1001A0000000000000000000E12C0008E12C000825
:1001B000E12C0008E12C0008E12C00080000000000
:1001C00000000000E12C000800000000000000001A
:0801D000E12C0008E12C0008FD
:1001E00010B5054C237833B9044B13B10448AFF371
:1001F00000800123237010BD70000020000000006B
:10020000C43C000808B5034B1BB103490348AFF3D6
:10021000008008BD0000000074000020C43C0008FD
:1002200001F0FF01102A2BDB10F0070F08D010F8A7
:10023000013B013A8B422DD010F0070F42B3F6D1AB
:10024000F0B441EA012141EA014122F007047FF0C4
:1002500000070023F0E80256083C85EA010586EA1B
:10026000010685FA47F5A3FA87F586FA47F6A5FA57
:1002700087F68EB9EED1F0BC01F0FF0102F0070263
:1002800032B110F8013B013A83EA010313B1F8D10E
:100290000020704701387047002D06BF35460338EF
:1002A000073815F0010F07D1013015F4807F02BF28
:1002B000013015F4C03F0130F0BC0138704700BF79
:1002C00053B94AB9002908BF00281CBF4FF0FF31BD
:1002D0004FF0FF3000F074B9ADF1080C6DE904CEB9
:1002E00000F006F8DDF804E0DDE9022304B0704711
:1002F0002DE9F047089D04468E46002B4DD18A42D9
:10030000944669D9B2FA82F252B101FA02F3C2F10B
:10031000200120FA01F10CFA02FC41EA030E94409C
:100320004FEA1C48210CBEFBF8F61FFA8CF708FBBD
:1003300016E341EA034306FB07F199420AD91CEB95
:10034000030306F1FF3080F01F81994240F21C81C7
:10035000023E63445B1AA4B2B3FBF8F008FB10330F
:1003600044EA034400FB07F7A7420AD91CEB040444
:1003700000F1FF3380F00A81A74240F20781644414
:10038000023840EA0640E41B00261DB1D440002399
:10039000C5E900433146BDE8F0878B4209D9002DFD
:1003A00000F0EF800026C5E9000130463146BDE887
:1003B000F087B3FA83F6002E4AD18B4202D38242F1
:1003C00000F2F980841A61EB030301209E46002DA0
:1003D000E0D0C5E9004EDDE702B9FFDEB2FA82F2F5
:1003E000002A40F09280A1EB0C014FEA1C471FFA53
:1003F0008CFE0126200CB1FBF7F307FB131140EA3A
:1004000001410EFB03F0884208D91CEB010103F106
:10041000FF3802D2884200F2CB804346091AA4B2C8
:10042000B1FBF7F007FB101144EA01440EFB00FE9C
:10043000A64508D91CEB040400F1FF3102D2A64501
:1004400000F2BB800846A4EB0E0440EA03409CE7A0
:10045000C6F12007B34022FA07FC4CEA030C20FA4D
:1004600007F401FA06F31C43F9404FEA1C4900FA6D
:1004700006F3B1FBF9F8200C1FFA8CFE09FB1811EA
:1004800040EA014108FB0EF0884202FA06F20BD95D
:100490001CEB010108F1FF3A80F08880884240F2AD
:1004A0008580A8F102086144091AA4B2B1FBF9F0F1
:1004B00009FB101144EA014100FB0EFE8E4508D9EC
:1004C0001CEB010100F1FF346CD28E456AD9023871
:1004D000614440EA0840A0FB0294A1EB0E01A14256
:1004E000C846A64656D353D05DB1B3EB080261EBC4
:1004F0000E0101FA07F722FA06F3F1401F43C5E99E
:10050000007100263146BDE8F087C2F12003D840D3
:100510000CFA02FC21FA03F3914001434FEA1C4715
:100520001FFA8CFEB3FBF7F007FB10360B0C43EA07
:10053000064300FB0EF69E4204FA02F408D91CEBB7
:10054000030300F1FF382FD29E422DD902386344B5
:100550009B1B89B2B3FBF7F607FB163341EA034155
:1005600006FB0EF38B4208D91CEB010106F1FF38A4
:1005700016D28B4214D9023E6144C91A46EA00469B
:1005800038E72E46284605E70646E3E61846F8E62D
:100590004B45A9D2B9EB020864EB0C0E0138A3E776
:1005A0004646EAE7204694E74046D1E7D0467BE757
:1005B000023B614432E7304609E76444023842E7CF
:1005C000704700BF10B58AB00024059406940794C4
:1005D00008940994234BDA6C42F00402DA64DA6C72
:1005E00002F004020192019ADA6C42F02002DA640D
:1005F000DA6C02F020020292029ADA6C42F00102F6
:10060000DA64DA6C02F001020392039ADA6C42F0C7
:100610000202DA64DB6C03F002030493049B4FF4E0
:100620006043059305A9104801F02AFA02230593B7
:100630000694079405A90D4801F022FAE3230593D7
:100640000694079405A94FF0904001F019FA03238E
:1006500005930694079405A9054801F011FA0AB01C
:1006600010BD00BF00100240000800480014004800
:100670000004004810B514464FF0FF3392B2024810
:1006800002F06AF9204610BD4801002000B58DB087
:1006900001A90B4800F00AFC019909B9069B33B186
:1006A000084802F04BFB0699074802F047FB074A4F
:1006B0000749034800F0D1FB0DB05DF804FB00BF13
:1006C00098000020DC3C0008F03C0008900000206E
:1006D000E401002008B572B6014802F02FFBFEE7E6
:1006E000043D000808B51248124B03600023436024
:1006F0008360C36003744374837401224261826126
:100700000D21C1610221016242628262C262026302
:1007100043638363C36300F09FFA20B9044800F089
:1007200085FB10B908BDFFF7D5FFFFF7D3FF00BF6A
:10073000980000200064004008B51748174B03607C
:100740004FF4E133436000238360C36003610C22F4
:1007500042618361C36103624362836202F0CAF94A
:1007600088B900210C4802F03EFA70B900210A480D
:1007700002F05EFA58B9084802F016FA48B908487B
:1007800002F0DCFA08BDFFF7A5FFFFF7A3FFFFF7B4
:10079000A1FFFFF79FFF00BF480100200044004079
:1007A000183D000800B589B0002304930593069313
:1007B00007930193029303931348144A0260632240
:1007C0004260836040F2FF42C2600361836101F0D6
:1007D00015FD98B94FF48053049304A90A4801F019
:1007E0004BFD68B9202301930023039301A9064818
:1007F00001F0DEFD30B909B05DF804FBFFF76AFFD8
:10080000FFF768FFFFF766FFFC00002000080040CC
:1008100010B594B03822002106A802F087FA00240F
:10082000019402940394049405944FF4007001F031
:1008300019FA022306934FF48073099340230A9315
:100840000D9406A800F0CEFB68B90F230193012395
:100850000293002103910491059101A800F078FE14
:1008600018B914B010BDFFF735FFFFF733FF0000D4
:1008700080B500F069FBFFF7CBFFFFF7A3FEFFF7A2
:1008800031FFFFF759FFFFF78DFF0022404B1A6041
:10089000404B4FF4D06119605A609A600821D960CA
:1008A0005A619A61DA613C4801F008FB3B4C002533
:1008B00025703B4E4FF40051304601F0CBF92378C0
:1008C000184320704FF48041304601F0C3F923787B
:1008D00043EA400323704FF40041304601F0BAF977
:1008E000237843EA8003237002212E4801F0B2F9F5
:1008F000237843EAC003237001214FF0904001F0B8
:10090000A9F9237843EA0013237002214FF09040A5
:1009100001F0A0F9237843EA4013237080214FF0BF
:10092000904001F097F9237843EA801323701E4F1B
:100930000121384601F08EF9237843EAC013237071
:100940001A4E357020214FF0904001F083F9337832
:100950001843307040214FF0904001F07BF933781C
:1009600043EA400333700221384601F073F93378CB
:1009700043EA8000C0B230700D4B22781A70587074
:100980009D70DD701D715D719D71DD718EE700BF21
:10099000DC010020E4010020FC0000208C0000208D
:1009A000000800480014004800040048E00100204E
:1009B00090000020FEE7FEE7FEE7FEE7FEE7704757
:1009C0007047704708B500F0CFFA08BD08B5024877
:1009D00001F0BAFA08BD00BFFC00002000B583B0EA
:1009E0000B4B1A6E42F001021A661A6E02F00102F7
:1009F0000092009A9A6D42F080529A659B6D03F0C6
:100A000080530193019B01F0B3F903B05DF804FB3F
:100A10000010024010B598B00446002113911491C3
:100A2000159116911791442202A802F07FF92268CD
:100A30001A4B9A4201D018B010BD4FF48053029364
:100A40004FF000730E9302A800F0A8FE10BB144BE9
:100A50009A6D42F000729A659A6D02F000720092EF
:100A6000009ADA6C42F00102DA64DB6C03F00103F5
:100A70000193019B4FF4C05313930223149300235B
:100A8000159316930923179313A94FF0904000F084
:100A9000F7FFD0E7FFF71EFED9E700BF0064004074
:100AA0000010024002680E4B9A4200D0704700B519
:100AB00083B003F502339A6D42F004029A659B6D90
:100AC00003F004030193019B002211461E2001F054
:100AD00069F91E2001F09EF903B05DF804FB00BF28
:100AE0000008004010B598B00446002113911491FD
:100AF000159116911791442202A802F017F9226865
:100B0000174B9A4201D018B010BD0223029302A8DD
:100B100000F044FE08BB134B9A6D42F400329A6514
:100B20009A6D02F400320092009ADA6C42F00102EF
:100B3000DA64DB6C03F001030193019B0C23139334
:100B4000022314930023159316930723179313A9D5
:100B50004FF0904000F094FFD5E7FFF7BBFDDAE7D8
:100B6000004400400010024010B4154B03640168BB
:100B7000D1F8802022F4F812446B42EA0442C1F812
:100B80008020104A42640168D1F8802022F070620F
:100B9000846B42EA0462C1F880200B4A8264D83236
:100BA000C264D83202651832426502E0002243F87E
:100BB000042B064A9342F9D95DF8044B704700BFF5
:100BC00000A4004070A40040B0A400404FA7004023
:100BD00070B54C68ECB90D698C6825430C6845EA22
:100BE0008445CC690E6A44EA06648E6934434E69D2
:100BF0003443CE6844EA0644406D03EBC30300EB84
:100C0000C30E40F83350CEF804400EF1080E002019
:100C100019E00C698D6825430C68254345F0804533
:100C2000DFE702EB000C9CF803409CF802301B0449
:100C300043EA04639CF8014043EA0423145C234321
:100C40004EF8043B0430CB68024CE35C8342E8D8A6
:100C500070BD00BF2C3D0008002800F0E38038B5CF
:100C6000044690F85C30D3B12268936923F01003F6
:100C7000936100F085F9054623689A6912F0080F20
:100C800012D000F07DF9401B0A28F5D9236E43F0FD
:100C900001032366032384F85C30012038BD80F80B
:100CA0005D30FFF7B7FEDFE79A6942F001029A6113
:100CB00000F066F9054623689A6912F0010F0DD11C
:100CC00000F05EF9401B0A28F5D9236E43F00103BA
:100CD0002366032384F85C300120DFE79A6942F041
:100CE00002029A612268504B9A4242D0237C012B27
:100CF00045D02268936943F040039361637C012BE4
:100D000043D02268936923F480439361A37C012B31
:100D100041D02268936943F48053936122689369B8
:100D200023F44073A1680B4393612268936923F015
:100D3000A40393612268136923F010031361E3682D
:100D4000012B2ED0002B31D0022B54D02268936976
:100D500043F0800393612268136943F01003136129
:100D6000E368032B22D12268936943F02003936147
:100D70001CE06268A3F58063C3F80025B6E722682B
:100D8000936923F040039361B8E72268936943F4C1
:100D900080439361BAE72268936923F48053936197
:100DA000BCE72268936943F004039361A3695A1E68
:100DB000E369013B1B0243EA4263226A013A13439F
:100DC0006269013A216843EA0243CB61A368B3F543
:100DD000407F16D02268D2F8C030E16B0B43C2F8D6
:100DE000C0302046FFF7C0FE0020A065206601232A
:100DF00084F85C3052E72268936943F020039361E2
:100E0000D4E7A36A013BE26A013A43EA0223226B78
:100E1000013A43EA0213626A013A216843EA024353
:100E2000CB60D7E7012070470064004090F85C3049
:100E3000DBB2012B05D0036E43F0040303660120EF
:100E40007047022380F85C300268936923F0010345
:100E50009361002303661846704738B5044690F83E
:100E60005C30DBB2022B1BD10368D3F8C40010F452
:100E7000001F05D0236E43F400732366012014E0A5
:100E8000D3F8C450C5F301452B462046FFF7A0FE1A
:100E900022680123AB40C2F8CC30A365002004E0F7
:100EA000036E43F008030366012038BD03685B6CE2
:100EB00003F007020A60C3F302224A6003F018023B
:100EC0008A60C3F34012CA60C3F380120A61C3F39D
:100ED000C0124A61C3F3C0228A61C3F30032CA61FF
:100EE000C3F340320A62C3F380324A62C3F306435B
:100EF0008B62002070470000104B1B680BB901206B
:100F0000704710B504464FF47A70B0FBF3F30C4A07
:100F10001068B0FBF3F000F08BFF68B90F2C01D91B
:100F200001200AE0002221464FF0FF3000F03AFF96
:100F3000044B1C60002000E0012010BD00000020D8
:100F4000080000200400002010B5032000F018FF66
:100F50000F20FFF7D1FF10B10124204610BD044639
:100F6000FFF73CFDF9E70000034A136803490968ED
:100F70000B441360704700BF0802002000000020EF
:100F8000014B1868704700BF08020020124BDA6856
:100F900002F00302D868C0F30310431C032A11D0E7
:100FA0000E48B0FBF3F00C4BDB68C3F3062303FBE6
:100FB00000F0094BDB68C3F3416301335B00B0FB16
:100FC000F3F070470648B0FBF3F0034BDB68C3F364
:100FD000062303FB00F0ECE7001002400024F400BD
:100FE00000127A00002800F04F8270B582B00446EB
:100FF000036813F0010F37D0A44A936803F00C0381
:10100000D26802F003020C2B23D0082B23D0636894
:10101000B3F5803F4ED0B3F5A02F51D09B4B1A684B
:1010200022F480321A601A6822F480221A606368FF
:10103000002B52D0FFF7A4FF0546944B1B6813F416
:10104000003F11D1FFF79CFF401B6428F5D9032016
:1010500023E2032AD9D18D4B1B6813F4003F03D040
:101060006368002B00F01282236813F0020F5DD03A
:10107000864A936803F00C03D26802F003020C2B3B
:101080003AD0042B3AD0E368002B75D07F4A13681E
:1010900043F480731360FFF773FF05467B4B1B68B7
:1010A00013F4806F5FD1FFF76BFF401B0228F5D967
:1010B0000320F2E1754A136843F480331360B6E706
:1010C00003F18043A3F53C331A6842F480221A608E
:1010D0001A6842F480321A60A9E7FFF751FF05460B
:1010E0006A4B1B6813F4003FBED0FFF749FF401B5B
:1010F0006428F5D90320D0E1022AC2D1634B1B68D2
:1011000013F4806F03D0E368002B00F0C1815F4AC5
:10111000536823F0FE43216943EA016353605C4B4B
:101120001868FFF7E9FE002840F0B481236813F047
:10113000080F4CD063699BB3544AD2F8943043F003
:101140000103C2F89430FFF71BFF05464F4BD3F85D
:10115000943013F0020F3AD1FFF712FF401B022820
:10116000F4D9032099E1494A536823F0FE432169E9
:1011700043EA01635360D9E7444A136823F4807358
:101180001360FFF7FDFE0546404B1B6813F4806FAC
:10119000CCD0FFF7F5FE401B0228F5D903207CE1F7
:1011A0003A4AD2F8943023F00103C2F89430FFF7A2
:1011B000E7FE0546354BD3F8943013F0020F06D006
:1011C000FFF7DEFE401B0228F4D9032065E1236807
:1011D00013F0040F00F081802C4B9B6D13F0805FA7
:1011E00036D12A4B9A6D42F080529A659B6D03F07E
:1011F00080530193019B0125264B1B6813F4807FCC
:1012000028D0A368012B39D0052B45D01F4BD3F82C
:10121000902022F00102C3F89020D3F8902022F011
:101220000402C3F89020A368002B43D0FFF7A8FE68
:101230000646164BD3F8903013F0020F4CD1FFF74F
:101240009FFE801B41F288339842F2D9032024E1AB
:101250000025D1E70F4A136843F480731360FFF74A
:101260008FFE06460B4B1B6813F4807FC9D1FFF736
:1012700087FE801B0228F5D903200EE1034AD2F82D
:10128000903043F00103C2F89030CCE700100240E8
:101290000400002000700040884BD3F8902042F0FA
:1012A0000402C3F89020D3F8902042F00102C3F862
:1012B0009020B8E7FFF764FE0646804BD3F89030E5
:1012C00013F0020F08D0FFF75BFE801B41F288335A
:1012D0009842F2D90320E0E0E5B9236813F0200F2B
:1012E00035D0A369E3B1754AD2F8983043F00103D1
:1012F000C2F89830FFF744FE0546704BD3F898309B
:1013000013F0020F23D1FFF73BFE401B0228F4D954
:101310000320C2E0694A936D23F080539365DCE7B4
:10132000664AD2F8983023F00103C2F89830FFF7EC
:1013300027FE0546614BD3F8983013F0020F06D014
:10134000FFF71EFE401B0228F4D90320A5E0E36945
:10135000002B00F0A180594A926802F00C020C2A7E
:1013600064D0022B13D0554A136823F080731360A6
:10137000FFF706FE0446514B1B6813F0007F4ED06A
:10138000FFF7FEFD001B0228F5D9032085E04B4A3C
:10139000136823F080731360FFF7F2FD0546474B97
:1013A0001B6813F0007F06D0FFF7EAFD401B022800
:1013B000F5D9032071E0414AD36841491940236AB5
:1013C000606A013843EA0013A06A43EA0023206BF5
:1013D0004008013843EA4053606B4008013843EA53
:1013E0004063E06A43EAC0630B43D360136843F091
:1013F00080731360D36843F08073D360FFF7C0FD40
:1014000004462E4B1B6813F0007F06D1FFF7B8FD92
:10141000001B0228F5D903203FE000203DE0274AC9
:10142000D168284B0B40D360002036E0012B36D02A
:10143000224BDB6803F00301226A914231D103F0B1
:10144000F002616A0139B2EB011F2CD103F4FE42B4
:10145000A16AB2EB012F28D103F07842E16AB2EB26
:10146000C16F24D103F4C001226B5208013AB1EBE1
:10147000425F1ED103F0C063626B5208013AB3EBC6
:10148000426F18D1002008E001207047012004E0DD
:10149000012002E0012000E0002002B070BD012028
:1014A000FBE70120F9E70120F7E70120F5E701203C
:1014B000F3E70120F1E70120EFE700BF0010024051
:1014C0000C809F01FCFFEEFE1E4B9B6803F00C039B
:1014D000042B33D01B4B9B6803F00C03082B2FD03D
:1014E000184B9B6803F00C030C2B01D000207047B5
:1014F000144BDA6802F00302D868C0F30310431CEF
:10150000032A11D01048B0FBF3F00E4BDB68C3F395
:10151000062303FB00F00B4BDB68C3F3416301338D
:101520005B00B0FBF3F070470848B0FBF3F0054BED
:10153000DB68C3F3062303FB00F0ECE702487047C7
:1015400002487047001002400024F40000127A00A4
:10155000002800F0E680F8B50C460546744B1B6881
:1015600003F00F038B420BD2714A136823F00F0371
:101570000B431360136803F00F038B4240F0D380DA
:101580002E6816F001065FD06B68032B2FD0022B5C
:101590004DD0684B1B6813F4806F00F0C680FFF7D6
:1015A00093FF654B98424DD9624A936823F0F0034C
:1015B00043F08003936080265E4A936823F0030320
:1015C00069680B439360FFF7DBFC0746594B9B6848
:1015D00003F00C036A68B3EB820F35D0FFF7D0FC41
:1015E000C01B41F288339842F0D9032078E0514B78
:1015F0001B6813F0007F01D1012071E0FFF7C6FCEA
:101600004D4B98421AD94B4B9B6813F0F00F05D005
:101610002E6816F00206CFD0AB688BB9454A9368A6
:1016200023F0F00343F0800393608026C4E7414B2E
:101630001B6813F4003FB2D1012051E00026BBE744
:101640000026B9E70026B7E72B6813F0020F48D051
:1016500013F0040F04D0374A936843F4E0639360B7
:101660002B6813F0080F06D0324A936823F47C539A
:1016700043F4E06393602F4A936823F0F003A96872
:101680000B4393602A4B1B6803F00F03A34230D82F
:101690002B6813F0040F06D0264A936823F4E06306
:1016A000E9680B4393602B6813F0080F07D0214AB9
:1016B000936823F46053296943EAC1039360FFF7F9
:1016C00003FF1C4B9B68C3F303131C4AD35C03F05A
:1016D0001F03D8401A4B18601A4B1868FFF70CFC10
:1016E000F8BD802ECED1134A936823F0F0039360A7
:1016F000C8E70F4A136823F00F0323431360FFF773
:101700003FFC06460A4B1B6803F00F03A342BFD001
:10171000FFF736FC801B41F288339842F2D9032050
:10172000DEE7012070470120DAE70120D8E700BF9B
:10173000002002400010024000B4C404643D0008D0
:101740000800002004000020014B1868704700BF0B
:101750000800002008B5FFF7F7FF054B9B68C3F3AF
:101760000223044AD35C03F01F03D84008BD00BF26
:1017700000100240743D000808B5FFF7E5FF054B77
:101780009B68C3F3C223044AD35C03F01F03D84011
:1017900008BD00BF00100240743D0008F0B583B0E2
:1017A0000446036813F4002F69D0AE4B9B6D13F011
:1017B000805F1ED1AB4B9A6D42F080529A659B6D53
:1017C00003F080530193019B0126A74A136843F459
:1017D00080731360FFF7D4FB0546A34B1B6813F41B
:1017E000807F08D1FFF7CCFB401B0228F5D90325E9
:1017F00002E00026E9E7002545BB9A4BD3F890307C
:1018000013F4407315D0226C9A4212D0954AD2F844
:10181000903023F44073D2F8901041F48031C2F834
:101820009010D2F8901021F48031C2F89010C2F8D4
:10183000903013F0010F10D145B98A4AD2F8903098
:1018400023F44073216C0B43C2F89030C6B1854A33
:10185000936D23F08053936512E0FFF791FB0746E9
:10186000804BD3F8903013F0020FE5D1FFF788FBDF
:10187000C01B41F288339842F2D90325DCE70025EA
:10188000236813F0010F08D0764AD2F8883023F08D
:10189000030361680B43C2F88830236813F0020F1A
:1018A00008D0704AD2F8883023F00C03A1680B43AB
:1018B000C2F88830236813F0040F08D0694AD2F8C0
:1018C000883023F03003E1680B43C2F88830236886
:1018D00013F0080F08D0634AD2F8883023F0C00311
:1018E00021690B43C2F88830236813F0200F08D019
:1018F0005C4AD2F8883023F4406361690B43C2F834
:101900008830236813F0400F08D0564AD2F8883048
:1019100023F44053A1690B43C2F88830236813F0C5
:10192000800F08D04F4AD2F8883023F44043E16951
:101930000B43C2F88830236813F4807F08D0494AEB
:10194000D2F8883023F44033216A0B43C2F8883040
:10195000236813F4007F08D0424AD2F8883023F479
:101960004023616A0B43C2F88830236813F4806F08
:101970000CD03C4AD2F8883023F44013A16A0B43C0
:10198000C2F88830A36AB3F5801F57D0236813F4D8
:10199000006F0CD0334AD2F8883023F44003E16A58
:1019A0000B43C2F88830E36AB3F5800F4BD023684D
:1019B00013F4805F0CD02B4AD2F8883023F04073A8
:1019C000216B0B43C2F88830236BB3F1807F3FD08B
:1019D000236813F4005F0CD0224AD2F8883023F039
:1019E0004063616B0B43C2F88830636BB3F1006FE7
:1019F00033D0236813F4804F0CD01A4AD2F88830C1
:101A000023F04063A16B0B43C2F88830A36BB3F1A2
:101A1000006F2BD0236813F4004F0CD0114AD2F87A
:101A2000883023F04053E16B0B43C2F88830E36BFE
:101A3000B3F1805F1FD0284603B0F0BDD36843F4F4
:101A40008013D360A2E7D36843F48013D360AEE77A
:101A5000D36843F48013D360BAE7D36843F48013A8
:101A6000D360C6E70010024000700040D36843F422
:101A70008013D360CEE7D36843F48033D360DAE7D2
:101A8000F0B583B0002362E085685E000324B440B3
:101A900025EA0405CC68B4402C438460446824EAF9
:101AA0000C0C4C68C4F300149C4044EA0C044460E1
:101AB0005EE0DD08083550F8256003F007044FEAC2
:101AC000840C0F2404FA0CF426EA040E0C6904FAC0
:101AD0000CF444EA0E0440F8254060E0052400E0E0
:101AE000002404FA0EF42C430CF1020C554D45F879
:101AF0002C40554CA568D44325EA02064F6817F4DC
:101B0000801F01D042EA05064F4DAE60ED6804EA41
:101B100005064F6817F4001F01D042EA05064A4D3A
:101B2000EE606D6804EA05064F6817F4003F01D0C7
:101B300042EA0506444D6E602D682C404E6816F44E
:101B4000803F01D042EA05043F4A146001330A682D
:101B500032FA03F474D04FF0010C0CFA03FC1CEAC7
:101B60000202F3D04C6804F00304013C012C8BD931
:101B70004C6804F00304032C0CD0C4685D004FF0E3
:101B8000030C0CFA05FC24EA0C0C8C68AC4044EA0B
:101B90000C04C4604C6804F00304022C89D004686F
:101BA0004FEA430E4FF0030C0CFA0EFC24EA0C0C27
:101BB0004C6804F0030404FA0EF444EA0C040460D4
:101BC0004C6814F4403FC1D0204C256E45F001050F
:101BD0002566246E04F001040194019C4FEA930CE5
:101BE0000CF10205174C54F8255003F003044FEA9A
:101BF000840E0F2404FA0EF425EA0405B0F1904F88
:101C00003FF46EAF124CA04212D004F58064A042A3
:101C100010D004F58064A0420ED004F58064A04288
:101C20000CD004F58064A0423FF458AF062458E776
:101C3000012456E7022454E7032452E7042450E722
:101C400003B0F0BD0000014000040140001002405C
:101C5000000400480369194201D0012070470020A8
:101C600070470000002836D13E4B1B6803F4C06368
:101C7000B3F5806F08D03B4AD2F8803023F48073EC
:101C8000C2F8803000207047364AD2F8803023F402
:101C90008073C2F88030136823F4C06343F4007388
:101CA0001360314B1B68322202FB03F32F4AA2FB65
:101CB00003239B0C013300E0013B2A4A526912F4D2
:101CC000806F01D0002BF7D1264B5B6913F4806F36
:101CD00044D100207047B0F5007F08D0214A136836
:101CE00023F4C06343F480631360002070471D4BEE
:101CF0001B6803F4C063B3F5806F08D0194AD2F8AB
:101D0000803043F48073C2F8803000207047154A59
:101D1000D2F8803043F48073C2F88030136823F423
:101D2000C06343F4007313600F4B1B68322202FB45
:101D300003F30E4AA2FB03239B0C013300E0013B9B
:101D4000084A526912F4806F01D0002BF7D1054B7D
:101D50005B6913F4806F03D1002070470320704744
:101D600003207047007000400800002083DE1B4302
:101D7000024A936843F480439360704700700040C8
:101D8000074AD36823F4E0631B041B0C000200F431
:101D9000E060034343F0BF6343F40033D360704714
:101DA00000ED00E000B5194BDB68C3F30223C3F17B
:101DB000070CBCF1040F28BF4FF0040C03F1040E14
:101DC000BEF1060F18D9033B4FF0FF3E0EFA0CFC94
:101DD00021EA0C0199400EFA03F322EA03031943A6
:101DE00000280BDB0901C9B200F1604000F5614039
:101DF00080F800135DF804FB0023E5E700F00F0016
:101E00000901C9B2024B1954F4E700BF00ED00E02C
:101E100014ED00E0002807DB00F01F024009012359
:101E20009340024A42F82030704700BF00E100E0D2
:101E30000138B0F1807F0BD24FF0E0235861054AA2
:101E4000F02182F823100020986107221A61704760
:101E50000120704700ED00E010B4036A046A24F02A
:101E600001040462846924F0F00C4CEA021223F0AD
:101E70000A030B43826103625DF8044B704710B4A0
:101E8000036A046A24F010040462846924F4704C28
:101E90004CEA023223F0A00343EA01138261036299
:101EA0005DF8044B7047836823F4401323F07003FC
:101EB0000B4343F0070383607047000090F83D3008
:101EC000DBB2012B32D1022380F83D300268D368A7
:101ED00043F00103D3600368174A934218D0B3F16B
:101EE000804F15D0A2F59432934211D002F5806252
:101EF00093420DD002F59632934209D002F540622A
:101F0000934205D01A6842F001021A60002070471F
:101F100099680A4A0A40062A0AD0B2F5803F09D0D9
:101F20001A6842F001021A600020704701207047D1
:101F30000020704700207047002C0140070001007E
:101F4000704770477047704770B505460368DE6894
:101F50001C6914F0020F10D016F0020F0DD06FF0B4
:101F600002021A610123037703689B6913F0030FD0
:101F70007CD0FFF7E6FF00232B7714F0040F12D07C
:101F800016F0040F0FD02B686FF004021A610223C1
:101F90002B772B689B6913F4407F6DD02846FFF7A1
:101FA000D0FF00232B7714F0080F12D016F0080F83
:101FB0000FD02B686FF008021A6104232B772B686F
:101FC000DB6913F0030F5ED02846FFF7BAFF00234A
:101FD0002B7714F0100F12D016F0100F0FD02B68C3
:101FE0006FF010021A6108232B772B68DB6913F45A
:101FF000407F4FD02846FFF7A4FF00232B7714F033
:10200000010F02D016F0010F4BD114F4025F02D081
:1020100016F0800F4DD114F4807F02D016F0800F9F
:102020004FD114F0400F02D016F0400F51D114F0F0
:10203000200F02D016F0200F53D114F4801F02D0CD
:1020400016F4801F55D114F4001F02D016F4001F9F
:1020500057D114F4800F02D016F4800F59D114F424
:10206000000F02D016F4000F5BD170BDFFF768FFC0
:102070002846FFF767FF7EE72846FFF761FF2846FF
:10208000FFF760FF8DE72846FFF75AFF2846FFF766
:1020900059FF9CE72846FFF753FF2846FFF752FFFA
:1020A000ABE72B686FF001021A612846FEF7EEFAE3
:1020B000ABE72B686FF402521A61284600F0C3F9AF
:1020C000A9E72B686FF480721A61284600F0BCF90A
:1020D000A7E72B686FF040021A612846FFF733FF2D
:1020E000A5E72B686FF020021A61284600F0AAF9D4
:1020F000A3E72B686FF480121A61284600F0A5F957
:10210000A1E72B686FF400121A61284600F09EF9CF
:102110009FE72B686FF480021A61284600F097F958
:102120009DE72B686FF400021A61284600F090F9D1
:102130009BE700000368304A90420ED0B0F1804F18
:102140000BD0A2F59432904207D002F58062904203
:1021500003D002F59632904203D123F070034A680F
:102160001343254A90421AD0B0F1804F17D0A2F500
:102170009432904213D002F5806290420FD002F563
:10218000963290420BD002F54062904207D002F5A1
:102190008062904203D002F58062904203D123F422
:1021A0004073CA68134323F080034A6913430360F2
:1021B0008B68C3620B6883620F4B98420FD003F5A4
:1021C000006398420BD003F54063984207D003F5B3
:1021D0008063984203D003F58063984201D10B6974
:1021E000036301234361036913F0010F03D0036903
:1021F00023F0010303617047002C014060B310B568
:10220000044690F83D3013B3022384F83D30214654
:1022100051F8040BFFF78EFF012384F8483084F84F
:102220003E3084F83F3084F8403084F8413084F800
:10223000423084F8433084F8443084F8453084F8E0
:10224000463084F8473084F83D30002010BD80F8D7
:102250003C30FEF727FCD7E70120704710B48468B4
:1022600024F47F4C42EA03220A4342EA0C028260D1
:102270005DF8044B7047000090F83C30012B00F0F3
:102280008F8010B50446012380F83C30022380F88B
:102290003D3002689068434B034093600B68702B9D
:1022A00055D031D8502B6CD00CD9602B2AD1CA68AC
:1022B00049682068FFF7E3FD60212068FFF7F3FD20
:1022C000002035E0402B0AD1CA6849682068FFF732
:1022D000C3FD40212068FFF7E6FD002028E05BD821
:1022E000202B07D003D9302B04D0012020E00BB1E4
:1022F000102B05D119462068FFF7D5FD002017E007
:10230000012015E0012013E0B3F5005F2CD00BD9BC
:10231000254A9342EED012D9244A9342EAD0303271
:102320009342E7D0012003E0B3F5805F36D100206F
:10233000012384F83D30002384F83C3010BDB3F114
:10234000101FD7D0103A9342D4D00120F0E7CB68C9
:102350004A6889682068FFF781FF2268936843F024
:10236000770393600020E3E7CB684A6889682068B8
:10237000FFF774FF2268936843F480439360002062
:10238000D6E7CA6849682068FFF766FD50212068D3
:10239000FFF789FD0020CBE70120C9E70120C7E74F
:1023A000022070478800CEFF30001000400010006F
:1023B00090F83C30012B40D030B4012380F83C3001
:1023C000022380F83D300268536894681C4DAA428D
:1023D00003D005F50065AA4203D123F470034D68CC
:1023E0002B4323F0007323F070030D682B435360DD
:1023F0000368134A934212D0B3F1804F0FD0A2F575
:10240000943293420BD002F58062934207D002F5DA
:102410009632934203D002F54062934204D124F0F5
:1024200080048A6814439C60012380F83D300023B7
:1024300080F83C30184630BC70470220704700BF1F
:10244000002C0140704770477047704770477047D5
:102450007047026852E8003F23F4907342E800316D
:102460000029F6D1026802F1080353E8003F23F087
:10247000805323F00103083242E800310029F1D1F2
:10248000C36E012B06D02023C0F88C300023C36616
:1024900043677047026852E8003F23F0100342E8A8
:1024A00000310029F6D1EEE770B504460168836873
:1024B0000269134342691343C269134308688B4A94
:1024C000024013430B602268536823F44053E168D1
:1024D0000B435360A1692268854B9A4201D0236A5D
:1024E0001943936823F06E4323F430630B439360E6
:1024F0002268D36A23F00F03616A0B43D362236817
:102500007C4A934223D07C4A934234D07B4A934204
:102510004AD07B4A934259D0754A934268D01022E0
:1025200073498B4200F09580E069B0F5004F00F0F0
:10253000D280082A00F24F81DFE812F01201340144
:1025400010014D0137014D014D014D013A0102F5D8
:102550005842D2F8882002F00302032A09D8DFE8A3
:1025600002F002045C060122DAE70422D8E708221E
:10257000D6E71022D4E702F5E632D2F8882002F03E
:102580000C020C2A0ED8DFE802F0070D0D0D090D24
:102590000D0D4A0D0D0D0B000022C1E70422BFE70F
:1025A0000822BDE71022BBE702F5E432D2F888200A
:1025B00002F03002202A34D004D8A2B3102A34D139
:1025C0000422ADE7302A32D10822A9E702F5E2322F
:1025D000D2F8882002F0C002802A2AD004D852B350
:1025E000402A2AD104229BE7C02A28D1082297E753
:1025F00002F5C832D2F8882002F44062B2F5006FCA
:102600001FD005D8FAB1B2F5806F1ED1042287E73A
:10261000B2F5406F1BD1082282E7022280E7022236
:102620007EE702227CE700227AE7102278E7102278
:1026300076E7022274E7002272E7102270E7102288
:102640006EE702226CE700226AE7102268E7102298
:1026500066E7082A00F2AF80DFE802F008AD3BAD84
:1026600038ADADAD05004FF4004004E0FFF772F85F
:10267000002800F0A280626A224B33F81220B0FBDF
:10268000F2F3656805EB4501994200F29880B3EBDF
:10269000053F00F29680002633463146FDF710FED6
:1026A000090241EA106100026B08C0182A4633464D
:1026B00041F10001FDF704FEA0F54072124B9A4271
:1026C00000F281802368D860304662E0FEF7FCFEAD
:1026D000CEE70E48CFE7082A77D8DFE802F01939AD
:1026E00005763C7676761D00084815E0F369FFCF45
:1026F0000080004000380140004400400048004095
:10270000004C00403C3D0008FFFC0F000024F4009A
:10271000FFF720F800285AD0626A324B33F81230A3
:10272000B0FBF3F06268530803EB4000B0FBF2F03B
:10273000A0F110024FF6EF739A424AD883B223F009
:102740000F03C0F3420018432368D860002020E044
:10275000FFF712F8DEE7FEF7B7FEDBE7224803E0FB
:10276000FEF7F8FF002838D0626A1E4B33F81230AB
:10277000B0FBF3F0636800EB5300B0FBF3F0A0F1A3
:1027800010024FF6EF739A4229D8236880B2D860BE
:1027900000200123A4F86A30A4F86830002363679E
:1027A000A36770BDFEF7E8FFDCE7FEF78DFED9E713
:1027B0004FF40040D8E70120EBE70020E9E70120D3
:1027C000E7E70120E5E70120E3E70120E1E700205A
:1027D000DFE70120DDE70120DBE70020D9E701206A
:1027E000D7E700BF3C3D00080024F400836A13F0E3
:1027F000080F06D00268536823F40043816B0B4333
:102800005360836A13F0010F06D00268536823F403
:102810000033C16A0B435360836A13F0020F06D082
:102820000268536823F48033016B0B435360836A5F
:1028300013F0040F06D00268536823F48023416B21
:102840000B435360836A13F0100F06D0026893683D
:1028500023F48053C16B0B439360836A13F0200F02
:1028600006D00268936823F40053016C0B43936015
:10287000836A13F0400F0AD00268536823F4801370
:10288000416C0B435360436CB3F5801F0BD0836ADC
:1028900013F0800F06D00268536823F40023C16C44
:1028A0000B43536070470268536823F4C003816C84
:1028B0000B435360EBE72DE9F84305460E461746F8
:1028C0009946DDF820802C68E46936EA04030CBFE1
:1028D0004FF0010C4FF0000CBC4536D1B8F1FF3F72
:1028E000F1D0FEF74DFBA0EB0900404530D8B8F120
:1028F000000F2FD02B681A6812F0040FE3D0802E3F
:10290000E1D0402EDFD0DA6912F0080F11D1DA6978
:1029100012F4006FD7D04FF400621A622846FFF716
:1029200098FD2023C5F89030002385F884300320DB
:102930000CE008241C622846FFF78BFDC5F8904088
:10294000002385F88430012000E00020BDE8F883F2
:102950000320FBE70320F9E72DE9F04182B01E4692
:10296000D0F88830202B5AD104460D4690460029D5
:1029700059D00AB9012053E00023C0F89030212338
:10298000C0F88830FEF7FCFA0746A4F85480A4F893
:102990005680A368B3F5805F02D04FF0000816E0C0
:1029A000236943B34FF0000811E02023C4F88830B6
:1029B000032035E038F8023B2268C3F30803936232
:1029C000B4F8562092B2013A92B2A4F85620B4F864
:1029D00056309BB293B100963B46002280212046A0
:1029E000FFF769FF0028E0D1002DE3D015F8012B97
:1029F00023689A62E4E7A8460025E8E700963B468C
:102A0000002240212046FFF756FF18B92023C4F8C2
:102A1000883005E02023C4F88830032000E002203D
:102A200002B0BDE8F0810120FAE730B583B004467A
:102A30000023C0F89030FEF7A3FA0546226812681A
:102A400012F0080F10D123681B6813F0040F28D16F
:102A50002023C4F88830C4F88C300020E06620675A
:102A600084F8840003B030BD6FF07E4300930346CA
:102A700000224FF400112046FFF71DFF0028E2D08E
:102A8000226852E8003F23F0800342E80031002929
:102A9000F6D12023C4F88830002384F88430032042
:102AA000E0E76FF07E4300932B4600224FF4800155
:102AB0002046FFF700FF0028CAD0226852E8003FF6
:102AC00023F4907342E800310029F6D1226802F124
:102AD000080353E8003F23F00103083242E80031C5
:102AE0000029F3D12023C4F88C30002384F88430EB
:102AF0000320B7E778B310B50446D0F888300BB39D
:102B00002423C4F888302268136823F0010313607B
:102B1000A36AE3B92046FFF7C7FC012811D0226859
:102B2000536823F4904353602268936823F02A0388
:102B300093602268136843F0010313602046FFF797
:102B400074FF10BD80F88430FDF7CCFFD8E7204635
:102B5000FFF74CFEDEE7012070470000436E2BB903
:102B60000123A0F86A30A0F86830704730B40368D9
:102B70009A68C2F342629968490F094D6B5CDB00A9
:102B8000084C615C93FBF1F3A0F86A30AB5CDB00AE
:102B9000A25C93FBF2F3A0F8683030BC704700BF32
:102BA0005C3D0008543D000890F88430012B18D09B
:102BB000012380F884302423C0F8883003681A6821
:102BC000196821F00101196022F0005200234366C8
:102BD00001680A602022C0F8882080F884301846F6
:102BE00070470220704738B590F88430012B1DD013
:102BF0000446012380F884302423C0F88830036819
:102C00001D681A6822F001021A600268936823F0B6
:102C1000604319439160FFF7A1FF23681D602023E3
:102C2000C4F88830002084F8840038BD0220FCE716
:102C300038B590F88430012B1DD00446012380F86C
:102C400084302423C0F8883003681D681A6822F095
:102C500001021A600268936823F06063194391606F
:102C6000FFF77CFF23681D602023C4F88830002014
:102C700084F8840038BD0220FCE70000034AD2F843
:102C8000883043F47003C2F88830704700ED00E0EC
:102C90000D488546FFF7F2FF0C480D490D4A002309
:102CA00002E0D458C4500433C4188C42F9D30A4A01
:102CB0000A4C002301E013600432A242FBD300F06F
:102CC00011F8FDF7D5FDFEE7008000200000002090
:102CD00070000020243E0008700000202002002028
:102CE000FEE7000070B50D4D0D4C641BA4100026CE
:102CF000A64209D10B4D0C4C00F0E4FF641BA4105C
:102D00000026A64205D170BD55F8043B9847013610
:102D1000EEE755F8043B98470136F2E71C3E000801
:102D20001C3E00081C3E0008203E000802440346EA
:102D3000934200D1704703F8011BF9E70FB40A4B27
:102D400013B51C6824B1A36913B9204600F066F8D6
:102D500005AB049AA1680193204600F0BDF902B0CA
:102D6000BDE8104004B070470C000020002310B5EF
:102D70000446C0E90033C0E90433836081814366BF
:102D8000C2818361194608225C30FFF7CFFF054BF3
:102D90006362054BA362054BE362054B2462236328
:102DA00010BD00BF81360008A3360008DB360008DE
:102DB000FF360008014900F0AFB800BFD93900085C
:102DC00070B568224D1E55430E4605F1740100F0A2
:102DD000E5F8044640B10021C0E900160C30A060BF
:102DE00005F16802FFF7A2FF204670BD014800F020
:102DF000B3B800BF0D020020014800F0AEB800BF1C
:102E00000D020020014800F0A7B800BF0E0200200C
:102E1000014800F0A2B800BF0E02002010B5044621
:102E2000FFF7F0FFA3691BB1BDE81040FFF7F0BF4B
:102E3000C4E912332365134B134A1B68A262A342F1
:102E400004BF0123A361204600F020F86060204603
:102E500000F01CF8A060204600F018F80022E060A6
:102E600004216068FFF782FFA06801220921FFF7B3
:102E70007DFFE06802221221FFF778FF0123A361A2
:102E8000D2E700BF7C3D0008B52D0008F8B5074625
:102E9000FFF7ACFF1E4B1E68B36913B93046FFF74E
:102EA000BDFF4836D6E90134013B03D533680BB387
:102EB0003668F7E7B4F90C50D5B9164BE36004F166
:102EC0005800656600F047F8FFF796FFC4E9015522
:102ED000C4E904552560A5610822294604F15C0077
:102EE000FFF724FFC4E90D55C4E912552046F8BD8B
:102EF0006834D9E704213846FFF762FF04463060A2
:102F00000028D5D1FFF778FF0C233B60EEE700BF28
:102F10007C3D00080100FFFF2DE9F8430646884686
:102F200000F148040027D4E90195B9F1010905D55C
:102F30002468002CF7D13846BDE8F883AB89012B13
:102F400007D9B5F90E30013303D029463046C047C2
:102F500007436835E9E770477047704770B50E4E14
:102F60000C463168054611B900F07AFB3060214605
:102F7000284600F075FB431C0AD0C41C24F003044F
:102F8000A04207D0211A284600F06AFB013001D187
:102F90004FF0FF34204670BD140200202DE9F041AF
:102FA000CD1C25F0030508350C2D38BF0C25002D50
:102FB000074601DBA94205D90C233B6000263046B9
:102FC000BDE8F0812E4E00F0BBFD33681C4634BBDB
:102FD00029463846FFF7C2FF431C04464DD13468EA
:102FE0002646002E40D123683146384604EB0308BC
:102FF00000F036FB80453AD1216803356D1A25F083
:10300000030508350C2D38BF0C2529463846FFF737
:10301000A5FF01302BD023682B4423600EE02268EB
:10302000521B1ED40B2A16D96119A342256018BF62
:103030005960636808BF316062514B60384604F1E3
:103040000B0600F083FD26F00706231DF21AB6D00A
:103050009B1BA350B3E76268A3420CBF32605A6067
:10306000ECE723466468B2E734467668B9E70C2398
:103070003B60384600F06AFDA1E72560DEE700BF4F
:10308000100200209368013B002B10B4936008DA13
:103090009469A34201DB0A2903D15DF8044B00F0D7
:1030A00033BB1368581C1060197008465DF8044B58
:1030B0007047F8B506460F461446D518AC4201D104
:1030C000002007E014F8011B3A463046FFF7DAFF0C
:1030D000431CF3D1F8BD00002DE9F04F0D469DB023
:1030E00014469846064618B183690BB9FFF796FE59
:1030F000894B9D421BD175686B6ED90705D4AB898E
:103100009A0502D4A86DFFF727FFAB891B0701D5ED
:103110002B69EBB92946304600F05AFBC0B16B6E03
:10312000DC070ED54FF0FF301DB0BDE8F08F7B4BB4
:103130009D4201D1B568DFE7794B9D4208BFF56834
:10314000DAE7AB899805EDD4A86DFFF706FFE9E74C
:103150000023099320238DF82930CDF80C803023EB
:10316000DFF8C0818DF82A304FF0010923469A46D6
:1031700013F8012B0AB1252AF9D1BAEB040B0BD0B5
:103180005B46224629463046FFF793FF013000F0A8
:10319000AA80099A5A4409929AF80030002B00F04C
:1031A000A28000234FF0FF32CDE905230AF1010A86
:1031B000049307938DF853301A935446052214F85C
:1031C000011B5848FDF72CF8049AD8B9D10644BF22
:1031D00020238DF85330130744BF2B238DF8533031
:1031E0009AF800302A2B15D0079A544600204FF049
:1031F0000A0C214611F8013B303B092B4ED9B0B1E6
:10320000079214E0A0EB080309FA03F313430493B5
:10321000A246D2E7039B191D1B680391002BBBBF7D
:103220005B4242F0020207930793B8BF04922378EF
:103230002E2B0CD163782A2B35D1039B1A1D1B68CA
:103240000392002BB8BF4FF0FF3302340593DFF831
:10325000E4A0217803225046FCF7E2FF40B140236E
:10326000A0EB0A0003FA00F0049B0343013404932B
:1032700014F8011B2C488DF828100622FCF7D0FF0B
:1032800000283FD0294B1BBB039B073323F00703C8
:1032900008330393099B3B44099367E70CFB023215
:1032A0000C460120A5E700230134059319464FF091
:1032B0000A0C204610F8012B303A092A03D9002BBA
:1032C000C5D00591C3E70CFB012104460123F0E7BB
:1032D00003AB00932A46164B04A93046AFF3008097
:1032E0000746781CD6D16B6ED90705D4AB899A05F1
:1032F00002D4A86DFFF731FEAB895B063FF512AF34
:10330000099811E703AB00932A46094B04A93046FC
:1033100000F080F8E4E700BFA03D0008C03D0008D1
:10332000803D0008E03D0008EA3D00080000000084
:10333000B3300008E63D00082DE9F04716469946EF
:103340008A680B69DDF820809342B8BF134633606A
:1033500091F8432007460C460AB1013333602368D5
:10336000990642BF336802333360256815F00605BD
:1033700006D104F1190AE36832689B1AAB4226DCD5
:1033800094F84320131E226818BF012392062BD401
:1033900004F1430249463846C04701301ED0236835
:1033A000E568326803F00603042B08BFAD1AA36872
:1033B00022690CBF25EAE57500259342C4BF9B1A1C
:1033C000ED1800261A34B5421AD1002008E0012376
:1033D000524649463846C047013003D14FF0FF30CE
:1033E000BDE8F0870135C6E7E1185A1C302081F8A6
:1033F0004300224494F8451082F843100233C7E793
:103400000123224649463846C0470130E6D00136FE
:10341000D9E700002DE9FF470F7E0C9D782F9146DC
:1034200080460C469A4601F1430207D8622F0AD81B
:10343000002F00F0D880582F00F0A38004F142053F
:1034400084F842703AE0A7F16303152BF6D801A186
:1034500051F823F0AD340008C13400083D340008B1
:103460003D3400083D3400083D340008C1340008F4
:103470003D3400083D3400083D3400083D34000868
:10348000CD350008F1340008AF3500083D340008A0
:103490003D340008EF3500083D340008F1340008E1
:1034A0003D3400083D340008B73500082B681A1D6C
:1034B0001B682A6004F1420584F842300123A3E02E
:1034C00020682968060601F104030AD50E682B60FE
:1034D000002E03DA2D23764284F843305E480A2317
:1034E00019E00E682B6010F0400F18BF36B2EFE7FE
:1034F0002B682068191D2960010601D51E6802E0AD
:103500004606FBD51E8854486F2F0CBF08230A239C
:10351000002184F843106568A560002DA2BF2168D2
:1035200021F0040121600EB9002D4DD01546B6FBE7
:10353000F3F103FB1167C75D05F8017D3746BB4218
:103540000E46F4D9082B0BD12368DE0708D5236972
:1035500061689942DEBF302305F8013C05F1FF3573
:10356000521B2261CDF800A04B4603AA21464046DB
:10357000FFF7E2FE01304CD14FF0FF3004B0BDE860
:10358000F087354881F845702968236851F8046B45
:1035900029601D0614D5DF0744BF43F020032360D4
:1035A0001EB9236823F0200323601023B0E72368AB
:1035B00043F0200323607823284884F84530E3E76C
:1035C000590648BFB6B2E6E71546BBE72B68266842
:1035D0006169181D286035061B6801D5196002E075
:1035E0007006FBD51980002323611546BAE72B68C6
:1035F0001A1D2A601D68626800212846FCF710FE2B
:1036000008B1401B606063682361002384F8433085
:10361000A8E723692A4649464046D0470130ABD047
:1036200023689B0713D4E068039B9842B8BF1846F1
:10363000A4E70123324649464046D04701309BD09B
:103640000135E36803995B1AAB42F2DCEBE7002536
:1036500004F11906F5E700BFF13D0008023E00083D
:1036600038B5064D0023044608462B6000F01CFBCD
:10367000431C02D12B6803B1236038BD180200201F
:1036800010B50C46B1F90E1000F0B2FA0028ABBF2D
:10369000636DA3891B1823F48053ACBF6365A381BA
:1036A00010BD2DE9F0411F468B89DB0505460C4610
:1036B000164605D5B1F90E100223002200F0C8F914
:1036C000A389B4F90E1023F48053A38132463B46FC
:1036D0002846BDE8F04100F069B810B50C46B1F9D4
:1036E0000E1000F0B5F9431CA38915BF606523F4E3
:1036F000805343F48053A38118BFA38110BDB1F957
:103700000E1000F0D3B80000F8B50E46144605467A
:1037100018B183690BB9FFF781FB214B9C422BD178
:103720006C68A369A360A3891A072FD523696BB3BB
:1037300023692068C01A6369F6B28342374604DC05
:103740002146284600F048F930BBA368013BA3603E
:1037500023685A1C22601E7063690130834204D0C2
:10376000A389DB0706D50A2E04D12146284600F09E
:1037700033F988B93846F8BD0A4B9C4201D1AC6890
:10378000CFE7094B9C4208BFEC68CAE721462846B0
:1037900000F01EF80028CBD04FF0FF37EAE700BF5B
:1037A000A03D0008C03D0008803D000838B5074D29
:1037B00004460846114600222A601A46FCF75AFFC2
:1037C000431C02D12B6803B1236038BD18020020CE
:1037D000324B70B51D6806460C4625B1AB6913B96E
:1037E0002846FFF71BFB2E4B9C420FD16C68A38928
:1037F000B4F90C2019072CD4DD0611D40923336049
:1038000042F04003A3814FF0FF303EE0254B9C4245
:1038100001D1AC68EBE7244B9C4208BFEC68E6E7BB
:10382000580712D5616B41B104F14403994202D0AB
:10383000304600F091F900236363A38923F0240349
:10384000A3810023636023692360A38943F00803F5
:10385000A38123694BB9A38903F42073B3F5007FD7
:1038600003D02146304600F02BF9A089B4F90C2092
:1038700010F001030AD00023A36063695B42A361D7
:10388000236943B910F08000BAD170BD810758BFD9
:103890006369A360F4E70020F7E700BF0C00002095
:1038A000A03D0008C03D0008803D000838B5064D29
:1038B0000023044608462B6000F0CEF9431C02D1D9
:1038C0002B6803B1236038BD180200208A892DE9D6
:1038D000F041054610070C4658D44B68002B05DC18
:1038E0000B6C002B02DC0020BDE8F081E66A002EA4
:1038F000F9D0002312F480522F682B6032D0606D13
:10390000A3895A0705D56368C01A636B0BB1236C92
:10391000C01A00230246E66A216A2846B047431CC3
:10392000A38906D129681D292CD82A4ACA40D6075E
:1039300028D500226260D9042269226004D5421C85
:1039400001D12B6803B96065616B2F600029CAD073
:1039500004F14403994202D0284600F0FDF800200B
:103960006063C1E7216A01232846B047411CC7D1E3
:103970002B68002BC4D01D2B01D0162B01D12F603A
:10398000B1E7A38943F04003A381ADE70F69002F9E
:10399000A9D093070E6808BF4B690F6018BF0023BA
:1039A000A6EB07088B60B8F1000F9CDD216AA66AC0
:1039B00043463A462846B047002806DCA38943F030
:1039C0004003A3814FF0FF308EE70744A8EB0008C7
:1039D000E9E700BF0100402038B50B6905460C46F9
:1039E00013B90025284638BD18B183690BB9FFF714
:1039F00015FA144B9C421BD16C68B4F90C30002BA7
:103A0000EFD0626ED00704D4990502D4A06DFFF701
:103A1000A3FA28462146FFF759FF636EDA070546E9
:103A2000E0D4A3899B05DDD4A06DFFF796FAD9E712
:103A3000054B9C4201D1AC68DFE7044B9C4208BFB8
:103A4000EC68DAE7A03D0008C03D0008803D0008B2
:103A500038B5074D04460846114600222A601A462A
:103A600000F012F9431C02D12B6803B1236038BD6A
:103A70001802002070B50E46B1F90E10002996B05C
:103A800014461D4608DAB6F90C3000222A601A06E0
:103A900010D44FF480630EE06A4600F0BBF80028B3
:103AA000F1DB019A02F47042A2F500535A425A41E6
:103AB0002A60EEE740230020236016B070BD0000AE
:103AC0008B8973B59D0706460C4607D504F147035D
:103AD000236023610123636102B070BD01AB6A46BC
:103AE000FFF7C8FF009905463046FFF757FA48B977
:103AF000B4F90C309A05EFD423F0030343F002032A
:103B0000A381E3E70D4BB362A389206043F08003F8
:103B1000A381009B6361019B20615BB1B4F90E102E
:103B2000304600F089F828B1A38923F0030343F05D
:103B30000103A381A0890543A581CDE7B52D000828
:103B40000148FFF709BA00BF0C0200200148FFF747
:103B500004BA00BF0C02002037B5002944D051F848
:103B6000043C0190002BA1F10404B8BFE418FFF756
:103B7000E7FF1E4A0198136833B96360146003B00D
:103B8000BDE83040FFF7E2BFA34208D925686119BC
:103B90008B4201BF19685B6849192160EDE71A463D
:103BA0005B680BB1A342FAD911685518A5420BD135
:103BB000246821445418A3421160E0D11C685B685A
:103BC000536021441160DAE702D90C230360D6E781
:103BD000256861198B4204BF19685B68636004BF84
:103BE000491921605460CAE703B030BD10020020BB
:103BF00038B5074D04460846114600222A601A4689
:103C000000F04AF8431C02D12B6803B1236038BD91
:103C10001802002038B5074D002304460846114617
:103C20002B6000F021F8431C02D12B6803B1236004
:103C300038BD00BF1802002038B5064D00230446E9
:103C400008462B6000F018F8431C02D12B6803B122
:103C5000236038BD18020020024B58221A604FF032
:103C6000FF30704718020020024B58221A604FF0B4
:103C7000FF30704718020020024B58221A600020C3
:103C8000704700BF18020020024B58221A604FF004
:103C9000FF30704718020020024B58221A604FF084
:103CA000FF30704718020020044A05491368002BB2
:103CB00008BF0B4618441060184670471C020020CD
:103CC00020020020F8B500BFF8BC08BC9E46704733
:0C3CD000F8B500BFF8BC08BC9E46704769
:103CDC000A0D4C6173742065727220256C640D0A98
:103CEC00000000000A0D20427573206572722025B9
:103CFC006C640D0A000000004572726F7220656ED4
:103D0C00636F756E74657265642100005265746131
:103D1C0072676574656420757361727421000000AC
:103D2C000001020304050607080C1014182030408B
:103D3C00010002000400060008000A000C0010003C
:103D4C002000400080000001080402040801010169
:103D5C000101010307010000000000000000000049
:103D6C000102030406070809000000000102030415
:103D7C001000002000000000000000000000000007
:103D8C000000000000000000000000000000000027
:103D9C000000000000000000000000000000000017
:103DAC000000000000000000000000000000000007
:103DBC0000000000000000000000000000000000F7
:103DCC0000000000000000000000000000000000E7
:103DDC0000000000232D302B2000686C4C00656621
:103DEC006745464700303132333435363738394140
:103DFC004243444546003031323334353637383956
:083E0C00616263646566000059
:083E1400DCC4FF7F0100000087
:043E1C000502000893
:043E2000E1010008B4
:103E240001000000100000000024F4001000002035
:103E340000000000A03D0008C03D0008803D0008CF
:103E4400000000000000000000000000000000006E
:103E5400000000000000000000000000000000005E
:103E6400000000000000000000000000000000004E
:103E7400000000000000000000000000000000003E
:103E8400000000000000000000000000000000002E
:0400000508002C9132
:00000001FF
